{
  "contractName": "TaskToken",
  "abi": [
    {
      "inputs": [],
      "stateMutability": "nonpayable",
      "type": "constructor"
    },
    {
      "anonymous": false,
      "inputs": [
        {
          "indexed": true,
          "internalType": "address",
          "name": "_owner",
          "type": "address"
        },
        {
          "indexed": true,
          "internalType": "address",
          "name": "_spender",
          "type": "address"
        },
        {
          "indexed": false,
          "internalType": "uint256",
          "name": "_value",
          "type": "uint256"
        }
      ],
      "name": "Approval",
      "type": "event"
    },
    {
      "anonymous": false,
      "inputs": [
        {
          "indexed": true,
          "internalType": "address",
          "name": "_from",
          "type": "address"
        },
        {
          "indexed": true,
          "internalType": "address",
          "name": "_to",
          "type": "address"
        },
        {
          "indexed": false,
          "internalType": "uint256",
          "name": "_value",
          "type": "uint256"
        }
      ],
      "name": "Transfer",
      "type": "event"
    },
    {
      "inputs": [
        {
          "internalType": "address",
          "name": "",
          "type": "address"
        },
        {
          "internalType": "address",
          "name": "",
          "type": "address"
        }
      ],
      "name": "allowed",
      "outputs": [
        {
          "internalType": "uint256",
          "name": "",
          "type": "uint256"
        }
      ],
      "stateMutability": "view",
      "type": "function",
      "constant": true
    },
    {
      "inputs": [
        {
          "internalType": "address",
          "name": "",
          "type": "address"
        }
      ],
      "name": "balances",
      "outputs": [
        {
          "internalType": "uint256",
          "name": "",
          "type": "uint256"
        }
      ],
      "stateMutability": "view",
      "type": "function",
      "constant": true
    },
    {
      "inputs": [],
      "name": "decimals",
      "outputs": [
        {
          "internalType": "uint8",
          "name": "",
          "type": "uint8"
        }
      ],
      "stateMutability": "view",
      "type": "function",
      "constant": true
    },
    {
      "inputs": [],
      "name": "name",
      "outputs": [
        {
          "internalType": "string",
          "name": "",
          "type": "string"
        }
      ],
      "stateMutability": "view",
      "type": "function",
      "constant": true
    },
    {
      "inputs": [],
      "name": "symbol",
      "outputs": [
        {
          "internalType": "string",
          "name": "",
          "type": "string"
        }
      ],
      "stateMutability": "view",
      "type": "function",
      "constant": true
    },
    {
      "inputs": [],
      "name": "tokenOfferCotation",
      "outputs": [
        {
          "internalType": "uint256",
          "name": "",
          "type": "uint256"
        }
      ],
      "stateMutability": "view",
      "type": "function",
      "constant": true
    },
    {
      "inputs": [],
      "name": "tokenTradeCotation",
      "outputs": [
        {
          "internalType": "uint256",
          "name": "",
          "type": "uint256"
        }
      ],
      "stateMutability": "view",
      "type": "function",
      "constant": true
    },
    {
      "inputs": [],
      "name": "totalSupply",
      "outputs": [
        {
          "internalType": "uint256",
          "name": "",
          "type": "uint256"
        }
      ],
      "stateMutability": "view",
      "type": "function",
      "constant": true
    },
    {
      "inputs": [
        {
          "internalType": "address",
          "name": "_to",
          "type": "address"
        },
        {
          "internalType": "uint256",
          "name": "_value",
          "type": "uint256"
        }
      ],
      "name": "transfer",
      "outputs": [
        {
          "internalType": "bool",
          "name": "success",
          "type": "bool"
        }
      ],
      "stateMutability": "nonpayable",
      "type": "function"
    },
    {
      "inputs": [
        {
          "internalType": "address",
          "name": "_from",
          "type": "address"
        },
        {
          "internalType": "address",
          "name": "_to",
          "type": "address"
        },
        {
          "internalType": "uint256",
          "name": "_value",
          "type": "uint256"
        }
      ],
      "name": "transferFrom",
      "outputs": [
        {
          "internalType": "bool",
          "name": "success",
          "type": "bool"
        }
      ],
      "stateMutability": "nonpayable",
      "type": "function"
    },
    {
      "inputs": [
        {
          "internalType": "address",
          "name": "_owner",
          "type": "address"
        }
      ],
      "name": "balanceOf",
      "outputs": [
        {
          "internalType": "uint256",
          "name": "balance",
          "type": "uint256"
        }
      ],
      "stateMutability": "view",
      "type": "function",
      "constant": true
    },
    {
      "inputs": [
        {
          "internalType": "address",
          "name": "_spender",
          "type": "address"
        },
        {
          "internalType": "uint256",
          "name": "_value",
          "type": "uint256"
        }
      ],
      "name": "approve",
      "outputs": [
        {
          "internalType": "bool",
          "name": "success",
          "type": "bool"
        }
      ],
      "stateMutability": "nonpayable",
      "type": "function"
    },
    {
      "inputs": [
        {
          "internalType": "address",
          "name": "_owner",
          "type": "address"
        },
        {
          "internalType": "address",
          "name": "_spender",
          "type": "address"
        }
      ],
      "name": "allowance",
      "outputs": [
        {
          "internalType": "uint256",
          "name": "remaining",
          "type": "uint256"
        }
      ],
      "stateMutability": "view",
      "type": "function",
      "constant": true
    },
    {
      "inputs": [
        {
          "internalType": "uint256",
          "name": "_newCotation",
          "type": "uint256"
        }
      ],
      "name": "changeTokenOfferCotation",
      "outputs": [],
      "stateMutability": "nonpayable",
      "type": "function"
    },
    {
      "inputs": [],
      "name": "changeBuyAvailability",
      "outputs": [],
      "stateMutability": "nonpayable",
      "type": "function"
    },
    {
      "inputs": [
        {
          "internalType": "uint256",
          "name": "_amount",
          "type": "uint256"
        }
      ],
      "name": "buyFromContract",
      "outputs": [],
      "stateMutability": "payable",
      "type": "function",
      "payable": true
    }
  ],
  "bytecode": "0x60806040526305f5e1006002556001600360006101000a81548160ff0219169083151502179055506040518060400160405280600981526020017f5461736b546f6b656e0000000000000000000000000000000000000000000000815250600690805190602001906200007492919062000219565b506012600760006101000a81548160ff021916908360ff1602179055506040518060400160405280600481526020017f54534b540000000000000000000000000000000000000000000000000000000081525060089080519060200190620000de92919062000219565b50348015620000ec57600080fd5b5033600360016101000a81548173ffffffffffffffffffffffffffffffffffffffff021916908373ffffffffffffffffffffffffffffffffffffffff1602179055506301c9c3806000803373ffffffffffffffffffffffffffffffffffffffff1673ffffffffffffffffffffffffffffffffffffffff168152602001908152602001600020819055506000803373ffffffffffffffffffffffffffffffffffffffff1673ffffffffffffffffffffffffffffffffffffffff16815260200190815260200160002054600254620001c3919062000302565b6000803073ffffffffffffffffffffffffffffffffffffffff1673ffffffffffffffffffffffffffffffffffffffff1681526020019081526020016000208190555066038d7ea4c68000600481905550620003a2565b82805462000227906200036c565b90600052602060002090601f0160209004810192826200024b576000855562000297565b82601f106200026657805160ff191683800117855562000297565b8280016001018555821562000297579182015b828111156200029657825182559160200191906001019062000279565b5b509050620002a69190620002aa565b5090565b5b80821115620002c5576000816000905550600101620002ab565b5090565b6000819050919050565b7f4e487b7100000000000000000000000000000000000000000000000000000000600052601160045260246000fd5b60006200030f82620002c9565b91506200031c83620002c9565b925082821015620003325762000331620002d3565b5b828203905092915050565b7f4e487b7100000000000000000000000000000000000000000000000000000000600052602260045260246000fd5b600060028204905060018216806200038557607f821691505b602082108114156200039c576200039b6200033d565b5b50919050565b611b2d80620003b26000396000f3fe6080604052600436106100f35760003560e01c806370a082311161008a578063a59e1ad611610059578063a59e1ad614610340578063a9059cbb1461036b578063dd62ed3e146103a8578063fa482ae3146103e5576100f3565b806370a0823114610284578063737225e3146102c15780639183164e146102ec57806395d89b4114610315576100f3565b806327e235e3116100c657806327e235e3146101c8578063313ce56714610205578063370f267e146102305780635c65816514610247576100f3565b806306fdde03146100f8578063095ea7b31461012357806318160ddd1461016057806323b872dd1461018b575b600080fd5b34801561010457600080fd5b5061010d610401565b60405161011a919061116c565b60405180910390f35b34801561012f57600080fd5b5061014a60048036038101906101459190611227565b61048f565b6040516101579190611282565b60405180910390f35b34801561016c57600080fd5b50610175610581565b60405161018291906112ac565b60405180910390f35b34801561019757600080fd5b506101b260048036038101906101ad91906112c7565b610587565b6040516101bf9190611282565b60405180910390f35b3480156101d457600080fd5b506101ef60048036038101906101ea919061131a565b61086d565b6040516101fc91906112ac565b60405180910390f35b34801561021157600080fd5b5061021a610885565b6040516102279190611363565b60405180910390f35b34801561023c57600080fd5b50610245610898565b005b34801561025357600080fd5b5061026e6004803603810190610269919061137e565b610954565b60405161027b91906112ac565b60405180910390f35b34801561029057600080fd5b506102ab60048036038101906102a6919061131a565b610979565b6040516102b891906112ac565b60405180910390f35b3480156102cd57600080fd5b506102d66109c1565b6040516102e391906112ac565b60405180910390f35b3480156102f857600080fd5b50610313600480360381019061030e91906113be565b6109c7565b005b34801561032157600080fd5b5061032a610a61565b604051610337919061116c565b60405180910390f35b34801561034c57600080fd5b50610355610aef565b60405161036291906112ac565b60405180910390f35b34801561037757600080fd5b50610392600480360381019061038d9190611227565b610af5565b60405161039f9190611282565b60405180910390f35b3480156103b457600080fd5b506103cf60048036038101906103ca919061137e565b610c91565b6040516103dc91906112ac565b60405180910390f35b6103ff60048036038101906103fa91906113be565b610d18565b005b6006805461040e9061141a565b80601f016020809104026020016040519081016040528092919081815260200182805461043a9061141a565b80156104875780601f1061045c57610100808354040283529160200191610487565b820191906000526020600020905b81548152906001019060200180831161046a57829003601f168201915b505050505081565b600081600160003373ffffffffffffffffffffffffffffffffffffffff1673ffffffffffffffffffffffffffffffffffffffff16815260200190815260200160002060008573ffffffffffffffffffffffffffffffffffffffff1673ffffffffffffffffffffffffffffffffffffffff168152602001908152602001600020819055508273ffffffffffffffffffffffffffffffffffffffff163373ffffffffffffffffffffffffffffffffffffffff167f8c5be1e5ebec7d5bd14f71427d1e84f3dd0314c0f7b2291e5b200ac8c7c3b9258460405161056f91906112ac565b60405180910390a36001905092915050565b60025481565b600080600160008673ffffffffffffffffffffffffffffffffffffffff1673ffffffffffffffffffffffffffffffffffffffff16815260200190815260200160002060003373ffffffffffffffffffffffffffffffffffffffff1673ffffffffffffffffffffffffffffffffffffffff168152602001908152602001600020549050826000808773ffffffffffffffffffffffffffffffffffffffff1673ffffffffffffffffffffffffffffffffffffffff16815260200190815260200160002054101580156106575750828110155b610696576040517f08c379a000000000000000000000000000000000000000000000000000000000815260040161068d906114be565b60405180910390fd5b826000808673ffffffffffffffffffffffffffffffffffffffff1673ffffffffffffffffffffffffffffffffffffffff16815260200190815260200160002060008282546106e4919061150d565b92505081905550826000808773ffffffffffffffffffffffffffffffffffffffff1673ffffffffffffffffffffffffffffffffffffffff16815260200190815260200160002060008282546107399190611563565b925050819055507fffffffffffffffffffffffffffffffffffffffffffffffffffffffffffffffff8110156107fc5782600160008773ffffffffffffffffffffffffffffffffffffffff1673ffffffffffffffffffffffffffffffffffffffff16815260200190815260200160002060003373ffffffffffffffffffffffffffffffffffffffff1673ffffffffffffffffffffffffffffffffffffffff16815260200190815260200160002060008282546107f49190611563565b925050819055505b8373ffffffffffffffffffffffffffffffffffffffff168573ffffffffffffffffffffffffffffffffffffffff167fddf252ad1be2c89b69c2b068fc378daa952ba7f163c4a11628f55a4df523b3ef8560405161085991906112ac565b60405180910390a360019150509392505050565b60006020528060005260406000206000915090505481565b600760009054906101000a900460ff1681565b600360019054906101000a900473ffffffffffffffffffffffffffffffffffffffff1673ffffffffffffffffffffffffffffffffffffffff163373ffffffffffffffffffffffffffffffffffffffff1614610928576040517f08c379a000000000000000000000000000000000000000000000000000000000815260040161091f90611609565b60405180910390fd5b600360009054906101000a900460ff1615600360006101000a81548160ff021916908315150217905550565b6001602052816000526040600020602052806000526040600020600091509150505481565b60008060008373ffffffffffffffffffffffffffffffffffffffff1673ffffffffffffffffffffffffffffffffffffffff168152602001908152602001600020549050919050565b60045481565b600360019054906101000a900473ffffffffffffffffffffffffffffffffffffffff1673ffffffffffffffffffffffffffffffffffffffff163373ffffffffffffffffffffffffffffffffffffffff1614610a57576040517f08c379a0000000000000000000000000000000000000000000000000000000008152600401610a4e90611609565b60405180910390fd5b8060048190555050565b60088054610a6e9061141a565b80601f0160208091040260200160405190810160405280929190818152602001828054610a9a9061141a565b8015610ae75780601f10610abc57610100808354040283529160200191610ae7565b820191906000526020600020905b815481529060010190602001808311610aca57829003601f168201915b505050505081565b60055481565b6000816000803373ffffffffffffffffffffffffffffffffffffffff1673ffffffffffffffffffffffffffffffffffffffff168152602001908152602001600020541015610b78576040517f08c379a0000000000000000000000000000000000000000000000000000000008152600401610b6f9061169b565b60405180910390fd5b816000803373ffffffffffffffffffffffffffffffffffffffff1673ffffffffffffffffffffffffffffffffffffffff1681526020019081526020016000206000828254610bc69190611563565b92505081905550816000808573ffffffffffffffffffffffffffffffffffffffff1673ffffffffffffffffffffffffffffffffffffffff1681526020019081526020016000206000828254610c1b919061150d565b925050819055508273ffffffffffffffffffffffffffffffffffffffff163373ffffffffffffffffffffffffffffffffffffffff167fddf252ad1be2c89b69c2b068fc378daa952ba7f163c4a11628f55a4df523b3ef84604051610c7f91906112ac565b60405180910390a36001905092915050565b6000600160008473ffffffffffffffffffffffffffffffffffffffff1673ffffffffffffffffffffffffffffffffffffffff16815260200190815260200160002060008373ffffffffffffffffffffffffffffffffffffffff1673ffffffffffffffffffffffffffffffffffffffff16815260200190815260200160002054905092915050565b60011515600360009054906101000a900460ff16151514610d6e576040517f08c379a0000000000000000000000000000000000000000000000000000000008152600401610d659061172d565b60405180910390fd5b60045481610d7c919061174d565b341015610d8a600454610f4a565b604051602001610d9a91906118a1565b60405160208183030381529060405290610dea576040517f08c379a0000000000000000000000000000000000000000000000000000000008152600401610de1919061116c565b60405180910390fd5b5060008060003073ffffffffffffffffffffffffffffffffffffffff1673ffffffffffffffffffffffffffffffffffffffff16815260200190815260200160002054905081811015610e3b82610f4a565b604051602001610e4b919061198c565b60405160208183030381529060405290610e9b576040517f08c379a0000000000000000000000000000000000000000000000000000000008152600401610e92919061116c565b60405180910390fd5b50816000803373ffffffffffffffffffffffffffffffffffffffff1673ffffffffffffffffffffffffffffffffffffffff1681526020019081526020016000206000828254610eea919061150d565b92505081905550816000803073ffffffffffffffffffffffffffffffffffffffff1673ffffffffffffffffffffffffffffffffffffffff1681526020019081526020016000206000828254610f3f9190611563565b925050819055505050565b60606000821415610f92576040518060400160405280600181526020017f300000000000000000000000000000000000000000000000000000000000000081525090506110ce565b600082905060005b60008214610fc4578080610fad906119b9565b915050600a82610fbd9190611a31565b9150610f9a565b60008167ffffffffffffffff811115610fe057610fdf611a62565b5b6040519080825280601f01601f1916602001820160405280156110125781602001600182028036833780820191505090505b50905060008290505b600086146110c6576001816110309190611563565b90506000600a80886110429190611a31565b61104c919061174d565b876110579190611563565b60306110639190611a91565b905060008160f81b90508084848151811061108157611080611ac8565b5b60200101907effffffffffffffffffffffffffffffffffffffffffffffffffffffffffffff1916908160001a905350600a886110bd9190611a31565b9750505061101b565b819450505050505b919050565b600081519050919050565b600082825260208201905092915050565b60005b8381101561110d5780820151818401526020810190506110f2565b8381111561111c576000848401525b50505050565b6000601f19601f8301169050919050565b600061113e826110d3565b61114881856110de565b93506111588185602086016110ef565b61116181611122565b840191505092915050565b600060208201905081810360008301526111868184611133565b905092915050565b600080fd5b600073ffffffffffffffffffffffffffffffffffffffff82169050919050565b60006111be82611193565b9050919050565b6111ce816111b3565b81146111d957600080fd5b50565b6000813590506111eb816111c5565b92915050565b6000819050919050565b611204816111f1565b811461120f57600080fd5b50565b600081359050611221816111fb565b92915050565b6000806040838503121561123e5761123d61118e565b5b600061124c858286016111dc565b925050602061125d85828601611212565b9150509250929050565b60008115159050919050565b61127c81611267565b82525050565b60006020820190506112976000830184611273565b92915050565b6112a6816111f1565b82525050565b60006020820190506112c1600083018461129d565b92915050565b6000806000606084860312156112e0576112df61118e565b5b60006112ee868287016111dc565b93505060206112ff868287016111dc565b925050604061131086828701611212565b9150509250925092565b6000602082840312156113305761132f61118e565b5b600061133e848285016111dc565b91505092915050565b600060ff82169050919050565b61135d81611347565b82525050565b60006020820190506113786000830184611354565b92915050565b600080604083850312156113955761139461118e565b5b60006113a3858286016111dc565b92505060206113b4858286016111dc565b9150509250929050565b6000602082840312156113d4576113d361118e565b5b60006113e284828501611212565b91505092915050565b7f4e487b7100000000000000000000000000000000000000000000000000000000600052602260045260246000fd5b6000600282049050600182168061143257607f821691505b60208210811415611446576114456113eb565b5b50919050565b7f746f6b656e2062616c616e6365206f7220616c6c6f77616e6365206973206c6f60008201527f776572207468616e20616d6f756e742072657175657374656400000000000000602082015250565b60006114a86039836110de565b91506114b38261144c565b604082019050919050565b600060208201905081810360008301526114d78161149b565b9050919050565b7f4e487b7100000000000000000000000000000000000000000000000000000000600052601160045260246000fd5b6000611518826111f1565b9150611523836111f1565b9250827fffffffffffffffffffffffffffffffffffffffffffffffffffffffffffffffff03821115611558576115576114de565b5b828201905092915050565b600061156e826111f1565b9150611579836111f1565b92508282101561158c5761158b6114de565b5b828203905092915050565b7f4f6e6c792074686520636f6e7472616374206f776e65722063616e2063616c6c60008201527f2069740000000000000000000000000000000000000000000000000000000000602082015250565b60006115f36023836110de565b91506115fe82611597565b604082019050919050565b60006020820190508181036000830152611622816115e6565b9050919050565b7f746f6b656e2062616c616e6365206973206c6f776572207468616e207468652060008201527f76616c7565207265717565737465640000000000000000000000000000000000602082015250565b6000611685602f836110de565b915061169082611629565b604082019050919050565b600060208201905081810360008301526116b481611678565b9050919050565b7f596f752063616e27742062757920746f6b656e732066726f6d2074686520636f60008201527f6e747261637420666f72206e6f77000000000000000000000000000000000000602082015250565b6000611717602e836110de565b9150611722826116bb565b604082019050919050565b600060208201905081810360008301526117468161170a565b9050919050565b6000611758826111f1565b9150611763836111f1565b9250817fffffffffffffffffffffffffffffffffffffffffffffffffffffffffffffffff048311821515161561179c5761179b6114de565b5b828202905092915050565b600081905092915050565b7f4574686572207175616e7469747920696e73756666696369656e742e2045616360008201527f68205461736b546f6b656e2076616c7565733a20000000000000000000000000602082015250565b600061180e6034836117a7565b9150611819826117b2565b603482019050919050565b600061182f826110d3565b61183981856117a7565b93506118498185602086016110ef565b80840191505092915050565b7f2057656973202831305e2d313820455448290000000000000000000000000000600082015250565b600061188b6012836117a7565b915061189682611855565b601282019050919050565b60006118ac82611801565b91506118b88284611824565b91506118c38261187e565b915081905092915050565b7f546f6b656e7320616d6f756e7420756e617661696c61626c6520746f2062757960008201527f2e205468657265206973206f6e6c792000000000000000000000000000000000602082015250565b600061192a6030836117a7565b9150611935826118ce565b603082019050919050565b7f20746f6b656e7300000000000000000000000000000000000000000000000000600082015250565b60006119766007836117a7565b915061198182611940565b600782019050919050565b60006119978261191d565b91506119a38284611824565b91506119ae82611969565b915081905092915050565b60006119c4826111f1565b91507fffffffffffffffffffffffffffffffffffffffffffffffffffffffffffffffff8214156119f7576119f66114de565b5b600182019050919050565b7f4e487b7100000000000000000000000000000000000000000000000000000000600052601260045260246000fd5b6000611a3c826111f1565b9150611a47836111f1565b925082611a5757611a56611a02565b5b828204905092915050565b7f4e487b7100000000000000000000000000000000000000000000000000000000600052604160045260246000fd5b6000611a9c82611347565b9150611aa783611347565b92508260ff03821115611abd57611abc6114de565b5b828201905092915050565b7f4e487b7100000000000000000000000000000000000000000000000000000000600052603260045260246000fdfea26469706673582212201d58b6df49e995ec5df1ed581f72812bf71f272fa6a827d96807e4a6b419f6fc64736f6c634300080a0033",
  "immutableReferences": {},
  "source": "// https://eips.ethereum.org/EIPS/eip-20\r\n// SPDX-License-Identifier: MIT\r\npragma solidity >=0.5.0 <0.9.0;\r\n\r\nimport \"./ITaskToken.sol\";\r\n\r\ncontract TaskToken is IERC20 {\r\n    uint256 constant private MAX_UINT256 = 2**256 - 1;\r\n    mapping (address => uint256) public balances;\r\n    mapping (address => mapping (address => uint256)) public allowed;\r\n    uint256 public totalSupply = 100000000; //100.000.000\r\n    bool private offerAvailable = true;\r\n    address private owner;\r\n    uint256 public tokenOfferCotation;\r\n    uint256 public tokenTradeCotation;\r\n\r\n    /*\r\n    NOTE:\r\n    The following variables are OPTIONAL vanities. One does not have to include them.\r\n    They allow one to customise the token contract & in no way influences the core functionality.\r\n    Some wallets/interfaces might not even bother to look at this information.\r\n    */\r\n    string public name = \"TaskToken\";          \r\n    uint8 public decimals = 18;             \r\n    string public symbol = \"TSKT\";                \r\n\r\n    constructor() {\r\n        owner = msg.sender;\r\n        balances[msg.sender] = 30000000;               // Give the creator 30% of all tokens\r\n        balances[address(this)] = totalSupply - balances[msg.sender];\r\n        tokenOfferCotation = 10**15 wei;\r\n    }\r\n\r\n    function transfer(address _to, uint256 _value) public override returns (bool success) {\r\n        require(balances[msg.sender] >= _value, \"token balance is lower than the value requested\");\r\n        balances[msg.sender] -= _value;\r\n        balances[_to] += _value;\r\n        emit Transfer(msg.sender, _to, _value); //solhint-disable-line indent, no-unused-vars\r\n        return true;\r\n    }\r\n    function transferFrom(address _from, address _to, uint256 _value) public override returns (bool success) {\r\n        uint256 allowanceAmount = allowed[_from][msg.sender];\r\n        require(balances[_from] >= _value && allowanceAmount >= _value, \"token balance or allowance is lower than amount requested\");\r\n        balances[_to] += _value;\r\n        balances[_from] -= _value;\r\n        if (allowanceAmount < MAX_UINT256) {\r\n            allowed[_from][msg.sender] -= _value;\r\n        }\r\n        emit Transfer(_from, _to, _value); //solhint-disable-line indent, no-unused-vars\r\n        return true;\r\n    }\r\n\r\n    function balanceOf(address _owner) public override view returns (uint256 balance) {\r\n        return balances[_owner];\r\n    }\r\n    function approve(address _spender, uint256 _value) public override returns (bool success) {\r\n        allowed[msg.sender][_spender] = _value;\r\n        emit Approval(msg.sender, _spender, _value); //solhint-disable-line indent, no-unused-vars\r\n        return true;\r\n    }\r\n    function allowance(address _owner, address _spender) public override view returns (uint256 remaining) {\r\n        return allowed[_owner][_spender];\r\n    }\r\n\r\n\r\n    function changeTokenOfferCotation(uint256 _newCotation) public{\r\n        require(msg.sender == owner, \"Only the contract owner can call it\");\r\n        tokenOfferCotation = _newCotation;\r\n    }\r\n    function changeBuyAvailability() public{\r\n        require(msg.sender == owner, \"Only the contract owner can call it\");\r\n        offerAvailable = !offerAvailable;\r\n    }\r\n    function buyFromContract(uint256 _amount) public payable{\r\n        require(offerAvailable == true, \"You can't buy tokens from the contract for now\");\r\n        require(msg.value >= _amount*tokenOfferCotation, string(abi.encodePacked(\"Ether quantity insufficient. Each TaskToken values: \",  uint2str(tokenOfferCotation), \" Weis (10^-18 ETH)\")));\r\n        uint256 restInContract = balances[address(this)];\r\n        require(restInContract >= _amount, string(abi.encodePacked(\"Tokens amount unavailable to buy. There is only \", uint2str(restInContract), \" tokens\")));\r\n        balances[msg.sender] += _amount;\r\n        balances[address(this)] -= _amount;\r\n    }\r\n\r\n\r\n\r\n    //============ HELPERS =============//\r\n    function uint2str(uint _i) internal pure returns (string memory _uintAsString) {\r\n        if (_i == 0) {\r\n            return \"0\";\r\n        }\r\n        uint j = _i;\r\n        uint len;\r\n        while (j != 0) {\r\n            len++;\r\n            j /= 10;\r\n        }\r\n        bytes memory bstr = new bytes(len);\r\n        uint k = len;\r\n        while (_i != 0) {\r\n            k = k-1;\r\n            uint8 temp = (48 + uint8(_i - _i / 10 * 10));\r\n            bytes1 b1 = bytes1(temp);\r\n            bstr[k] = b1;\r\n            _i /= 10;\r\n        }\r\n        return string(bstr);\r\n    }\r\n}",
  "sourcePath": "C:\\Users\\angel\\OneDrive\\Documentos\\Projetos GitHub\\schedule-all__nuxtjs-version\\blockchain-smart_contracts\\contracts\\TaskToken.sol",
  "compiler": {
    "name": "solc",
    "version": "0.8.10+commit.fc410830.Emscripten.clang"
  },
  "schemaVersion": "3.4.3",
  "updatedAt": "2021-11-22T17:36:17.422Z",
  "networkType": "ethereum",
  "devdoc": {
    "kind": "dev",
    "methods": {
      "allowance(address,address)": {
        "params": {
          "_owner": "The address of the account owning tokens",
          "_spender": "The address of the account able to transfer the tokens"
        },
        "returns": {
          "remaining": "Amount of remaining tokens allowed to spent"
        }
      },
      "approve(address,uint256)": {
        "params": {
          "_spender": "The address of the account able to transfer the tokens",
          "_value": "The amount of wei to be approved for transfer"
        },
        "returns": {
          "success": "Whether the approval was successful or not"
        }
      },
      "balanceOf(address)": {
        "params": {
          "_owner": "The address from which the balance will be retrieved"
        },
        "returns": {
          "balance": "the balance"
        }
      },
      "transfer(address,uint256)": {
        "params": {
          "_to": "The address of the recipient",
          "_value": "The amount of token to be transferred"
        },
        "returns": {
          "success": "Whether the transfer was successful or not"
        }
      },
      "transferFrom(address,address,uint256)": {
        "params": {
          "_from": "The address of the sender",
          "_to": "The address of the recipient",
          "_value": "The amount of token to be transferred"
        },
        "returns": {
          "success": "Whether the transfer was successful or not"
        }
      }
    },
    "version": 1
  },
  "userdoc": {
    "kind": "user",
    "methods": {
      "approve(address,uint256)": {
        "notice": "`msg.sender` approves `_addr` to spend `_value` tokens"
      },
      "transfer(address,uint256)": {
        "notice": "send `_value` token to `_to` from `msg.sender`"
      },
      "transferFrom(address,address,uint256)": {
        "notice": "send `_value` token to `_to` from `_from` on the condition it is approved by `_from`"
      }
    },
    "version": 1
  }
}