{
  "contractName": "TaskToken",
  "abi": [
    {
      "inputs": [],
      "stateMutability": "nonpayable",
      "type": "constructor"
    },
    {
      "inputs": [],
      "name": "name",
      "outputs": [
        {
          "internalType": "string",
          "name": "",
          "type": "string"
        }
      ],
      "stateMutability": "view",
      "type": "function",
      "constant": true
    },
    {
      "inputs": [],
      "name": "owner",
      "outputs": [
        {
          "internalType": "address",
          "name": "",
          "type": "address"
        }
      ],
      "stateMutability": "view",
      "type": "function",
      "constant": true
    },
    {
      "inputs": [
        {
          "internalType": "address",
          "name": "",
          "type": "address"
        }
      ],
      "name": "taskTokenBalance",
      "outputs": [
        {
          "internalType": "uint256",
          "name": "",
          "type": "uint256"
        }
      ],
      "stateMutability": "view",
      "type": "function",
      "constant": true
    },
    {
      "inputs": [
        {
          "internalType": "uint256",
          "name": "amount",
          "type": "uint256"
        }
      ],
      "name": "refill",
      "outputs": [],
      "stateMutability": "nonpayable",
      "type": "function"
    },
    {
      "inputs": [
        {
          "internalType": "uint256",
          "name": "amount",
          "type": "uint256"
        }
      ],
      "name": "purchase",
      "outputs": [],
      "stateMutability": "payable",
      "type": "function",
      "payable": true
    }
  ],
  "bytecode": "0x60806040526040518060400160405280600981526020017f5461736b546f6b656e00000000000000000000000000000000000000000000008152506000908051906020019061004f9291906100ea565b5034801561005c57600080fd5b5033600160006101000a81548173ffffffffffffffffffffffffffffffffffffffff021916908373ffffffffffffffffffffffffffffffffffffffff160217905550620f4240600260003073ffffffffffffffffffffffffffffffffffffffff1673ffffffffffffffffffffffffffffffffffffffff168152602001908152602001600020819055506101ee565b8280546100f6906101bc565b90600052602060002090601f016020900481019282610118576000855561015f565b82601f1061013157805160ff191683800117855561015f565b8280016001018555821561015f579182015b8281111561015e578251825591602001919060010190610143565b5b50905061016c9190610170565b5090565b5b80821115610189576000816000905550600101610171565b5090565b7f4e487b7100000000000000000000000000000000000000000000000000000000600052602260045260246000fd5b600060028204905060018216806101d457607f821691505b602082108114156101e8576101e761018d565b5b50919050565b61099d806101fd6000396000f3fe60806040526004361061004a5760003560e01c806306fdde031461004f57806382fbd4c31461007a5780638da5cb5b146100b7578063ca9d07ba146100e2578063efef39a11461010b575b600080fd5b34801561005b57600080fd5b50610064610127565b60405161007191906104fa565b60405180910390f35b34801561008657600080fd5b506100a1600480360381019061009c919061057f565b6101b5565b6040516100ae91906105c5565b60405180910390f35b3480156100c357600080fd5b506100cc6101cd565b6040516100d991906105ef565b60405180910390f35b3480156100ee57600080fd5b5061010960048036038101906101049190610636565b6101f3565b005b61012560048036038101906101209190610636565b6102dc565b005b6000805461013490610692565b80601f016020809104026020016040519081016040528092919081815260200182805461016090610692565b80156101ad5780601f10610182576101008083540402835291602001916101ad565b820191906000526020600020905b81548152906001019060200180831161019057829003601f168201915b505050505081565b60026020528060005260406000206000915090505481565b600160009054906101000a900473ffffffffffffffffffffffffffffffffffffffff1681565b600160009054906101000a900473ffffffffffffffffffffffffffffffffffffffff1673ffffffffffffffffffffffffffffffffffffffff163373ffffffffffffffffffffffffffffffffffffffff1614610283576040517f08c379a000000000000000000000000000000000000000000000000000000000815260040161027a90610710565b60405180910390fd5b80600260003073ffffffffffffffffffffffffffffffffffffffff1673ffffffffffffffffffffffffffffffffffffffff16815260200190815260200160002060008282546102d2919061075f565b9250508190555050565b6509184e72a000816102ee91906107b5565b341015610330576040517f08c379a000000000000000000000000000000000000000000000000000000000815260040161032790610881565b60405180910390fd5b80600260003073ffffffffffffffffffffffffffffffffffffffff1673ffffffffffffffffffffffffffffffffffffffff1681526020019081526020016000205410156103b2576040517f08c379a00000000000000000000000000000000000000000000000000000000081526004016103a990610913565b60405180910390fd5b80600260003073ffffffffffffffffffffffffffffffffffffffff1673ffffffffffffffffffffffffffffffffffffffff16815260200190815260200160002060008282546104019190610933565b9250508190555080600260003373ffffffffffffffffffffffffffffffffffffffff1673ffffffffffffffffffffffffffffffffffffffff1681526020019081526020016000206000828254610457919061075f565b9250508190555050565b600081519050919050565b600082825260208201905092915050565b60005b8381101561049b578082015181840152602081019050610480565b838111156104aa576000848401525b50505050565b6000601f19601f8301169050919050565b60006104cc82610461565b6104d6818561046c565b93506104e681856020860161047d565b6104ef816104b0565b840191505092915050565b6000602082019050818103600083015261051481846104c1565b905092915050565b600080fd5b600073ffffffffffffffffffffffffffffffffffffffff82169050919050565b600061054c82610521565b9050919050565b61055c81610541565b811461056757600080fd5b50565b60008135905061057981610553565b92915050565b6000602082840312156105955761059461051c565b5b60006105a38482850161056a565b91505092915050565b6000819050919050565b6105bf816105ac565b82525050565b60006020820190506105da60008301846105b6565b92915050565b6105e981610541565b82525050565b600060208201905061060460008301846105e0565b92915050565b610613816105ac565b811461061e57600080fd5b50565b6000813590506106308161060a565b92915050565b60006020828403121561064c5761064b61051c565b5b600061065a84828501610621565b91505092915050565b7f4e487b7100000000000000000000000000000000000000000000000000000000600052602260045260246000fd5b600060028204905060018216806106aa57607f821691505b602082108114156106be576106bd610663565b5b50919050565b7f4f6e6c7920746865206f776e65722063616e20726566696c6c2e000000000000600082015250565b60006106fa601a8361046c565b9150610705826106c4565b602082019050919050565b60006020820190508181036000830152610729816106ed565b9050919050565b7f4e487b7100000000000000000000000000000000000000000000000000000000600052601160045260246000fd5b600061076a826105ac565b9150610775836105ac565b9250827fffffffffffffffffffffffffffffffffffffffffffffffffffffffffffffffff038211156107aa576107a9610730565b5b828201905092915050565b60006107c0826105ac565b91506107cb836105ac565b9250817fffffffffffffffffffffffffffffffffffffffffffffffffffffffffffffffff048311821515161561080457610803610730565b5b828202905092915050565b7f596f75206d75737420706179206174206c65617374203130204d6963726f457460008201527f68657220706572207461736b746f6b656e000000000000000000000000000000602082015250565b600061086b60318361046c565b91506108768261080f565b604082019050919050565b6000602082019050818103600083015261089a8161085e565b9050919050565b7f4e6f7420656e6f756768205461736b546f6b656e7320696e2073746f636b207460008201527f6f20636f6d706c65746520746869732070757263686173650000000000000000602082015250565b60006108fd60388361046c565b9150610908826108a1565b604082019050919050565b6000602082019050818103600083015261092c816108f0565b9050919050565b600061093e826105ac565b9150610949836105ac565b92508282101561095c5761095b610730565b5b82820390509291505056fea2646970667358221220043b5e2b02d519ef93ae331a29c2fb32a2f8d8f58c26dd9894f15411cd4d646564736f6c634300080a0033",
  "immutableReferences": {},
  "source": "// SPDX-License-Identifier: MIT\r\n\r\npragma solidity >=0.4.22 <0.9.0;\r\n\r\ncontract TaskToken{\r\n    string public name = \"TaskToken\";\r\n    address public owner;\r\n    mapping (address => uint) public taskTokenBalance;\r\n\r\n    constructor() {\r\n        owner = msg.sender;\r\n        taskTokenBalance[address(this)] = 1000000; //1.000.000\r\n    }\r\n\r\n    function refill(uint amount) public{\r\n        require(msg.sender == owner, \"Only the owner can refill.\");\r\n        taskTokenBalance[address(this)] += amount;\r\n    }\r\n\r\n    function purchase(uint amount) public payable {\r\n        require(msg.value >= amount * 10**13 wei, \"You must pay at least 10 MicroEther per tasktoken\");\r\n        require(taskTokenBalance[address(this)] >= amount, \"Not enough TaskTokens in stock to complete this purchase\");\r\n        taskTokenBalance[address(this)] -= amount;\r\n        taskTokenBalance[msg.sender] += amount;\r\n    }\r\n}\r\n",
  "sourcePath": "C:\\Users\\angel\\OneDrive\\Documentos\\Projetos GitHub\\schedule-all__nuxtjs-version\\blockchain-smart_contracts\\contracts\\TaskToken.sol",
  "compiler": {
    "name": "solc",
    "version": "0.8.10+commit.fc410830.Emscripten.clang"
  },
  "schemaVersion": "3.4.3",
  "updatedAt": "2021-11-21T23:10:46.534Z",
  "networkType": "ethereum",
  "devdoc": {
    "kind": "dev",
    "methods": {},
    "version": 1
  },
  "userdoc": {
    "kind": "user",
    "methods": {},
    "version": 1
  }
}