{
  "contractName": "TaskToken",
  "abi": [
    {
      "inputs": [],
      "stateMutability": "nonpayable",
      "type": "constructor"
    },
    {
      "anonymous": false,
      "inputs": [
        {
          "indexed": true,
          "internalType": "address",
          "name": "_owner",
          "type": "address"
        },
        {
          "indexed": true,
          "internalType": "address",
          "name": "_spender",
          "type": "address"
        },
        {
          "indexed": false,
          "internalType": "uint256",
          "name": "_value",
          "type": "uint256"
        }
      ],
      "name": "Approval",
      "type": "event"
    },
    {
      "anonymous": false,
      "inputs": [
        {
          "indexed": true,
          "internalType": "address",
          "name": "_user",
          "type": "address"
        },
        {
          "indexed": true,
          "internalType": "string",
          "name": "_username",
          "type": "string"
        }
      ],
      "name": "SignedUpUser",
      "type": "event"
    },
    {
      "anonymous": false,
      "inputs": [
        {
          "indexed": true,
          "internalType": "address",
          "name": "_from",
          "type": "address"
        },
        {
          "indexed": true,
          "internalType": "address",
          "name": "_to",
          "type": "address"
        },
        {
          "indexed": false,
          "internalType": "uint256",
          "name": "_value",
          "type": "uint256"
        }
      ],
      "name": "Transfer",
      "type": "event"
    },
    {
      "inputs": [
        {
          "internalType": "address",
          "name": "",
          "type": "address"
        },
        {
          "internalType": "address",
          "name": "",
          "type": "address"
        }
      ],
      "name": "allowed",
      "outputs": [
        {
          "internalType": "uint256",
          "name": "",
          "type": "uint256"
        }
      ],
      "stateMutability": "view",
      "type": "function"
    },
    {
      "inputs": [
        {
          "internalType": "address",
          "name": "",
          "type": "address"
        }
      ],
      "name": "balances",
      "outputs": [
        {
          "internalType": "uint256",
          "name": "",
          "type": "uint256"
        }
      ],
      "stateMutability": "view",
      "type": "function"
    },
    {
      "inputs": [],
      "name": "decimals",
      "outputs": [
        {
          "internalType": "uint8",
          "name": "",
          "type": "uint8"
        }
      ],
      "stateMutability": "view",
      "type": "function"
    },
    {
      "inputs": [],
      "name": "name",
      "outputs": [
        {
          "internalType": "string",
          "name": "",
          "type": "string"
        }
      ],
      "stateMutability": "view",
      "type": "function"
    },
    {
      "inputs": [],
      "name": "symbol",
      "outputs": [
        {
          "internalType": "string",
          "name": "",
          "type": "string"
        }
      ],
      "stateMutability": "view",
      "type": "function"
    },
    {
      "inputs": [
        {
          "internalType": "uint256",
          "name": "",
          "type": "uint256"
        }
      ],
      "name": "taskOwner",
      "outputs": [
        {
          "internalType": "bool",
          "name": "status",
          "type": "bool"
        },
        {
          "internalType": "bool",
          "name": "onStaking",
          "type": "bool"
        },
        {
          "internalType": "address",
          "name": "owner",
          "type": "address"
        },
        {
          "internalType": "bool",
          "name": "deleted",
          "type": "bool"
        }
      ],
      "stateMutability": "view",
      "type": "function"
    },
    {
      "inputs": [],
      "name": "tokenOfferCotation",
      "outputs": [
        {
          "internalType": "uint256",
          "name": "",
          "type": "uint256"
        }
      ],
      "stateMutability": "view",
      "type": "function"
    },
    {
      "inputs": [],
      "name": "tokenTradeCotation",
      "outputs": [
        {
          "internalType": "uint256",
          "name": "",
          "type": "uint256"
        }
      ],
      "stateMutability": "view",
      "type": "function"
    },
    {
      "inputs": [],
      "name": "totalSupply",
      "outputs": [
        {
          "internalType": "uint256",
          "name": "",
          "type": "uint256"
        }
      ],
      "stateMutability": "view",
      "type": "function"
    },
    {
      "inputs": [
        {
          "internalType": "address",
          "name": "_to",
          "type": "address"
        },
        {
          "internalType": "uint256",
          "name": "_value",
          "type": "uint256"
        }
      ],
      "name": "transfer",
      "outputs": [
        {
          "internalType": "bool",
          "name": "success",
          "type": "bool"
        }
      ],
      "stateMutability": "nonpayable",
      "type": "function"
    },
    {
      "inputs": [
        {
          "internalType": "address",
          "name": "_from",
          "type": "address"
        },
        {
          "internalType": "address",
          "name": "_to",
          "type": "address"
        },
        {
          "internalType": "uint256",
          "name": "_value",
          "type": "uint256"
        }
      ],
      "name": "transferFrom",
      "outputs": [
        {
          "internalType": "bool",
          "name": "success",
          "type": "bool"
        }
      ],
      "stateMutability": "nonpayable",
      "type": "function"
    },
    {
      "inputs": [
        {
          "internalType": "address",
          "name": "_spender",
          "type": "address"
        },
        {
          "internalType": "uint256",
          "name": "_value",
          "type": "uint256"
        }
      ],
      "name": "approve",
      "outputs": [
        {
          "internalType": "bool",
          "name": "success",
          "type": "bool"
        }
      ],
      "stateMutability": "nonpayable",
      "type": "function"
    },
    {
      "inputs": [
        {
          "internalType": "address",
          "name": "_owner",
          "type": "address"
        },
        {
          "internalType": "address",
          "name": "_spender",
          "type": "address"
        }
      ],
      "name": "allowance",
      "outputs": [
        {
          "internalType": "uint256",
          "name": "remaining",
          "type": "uint256"
        }
      ],
      "stateMutability": "view",
      "type": "function"
    },
    {
      "inputs": [
        {
          "internalType": "address",
          "name": "_owner",
          "type": "address"
        }
      ],
      "name": "balanceOf",
      "outputs": [
        {
          "internalType": "uint256",
          "name": "balance",
          "type": "uint256"
        }
      ],
      "stateMutability": "view",
      "type": "function"
    },
    {
      "inputs": [
        {
          "internalType": "uint256",
          "name": "_newCotation",
          "type": "uint256"
        }
      ],
      "name": "changeTokenOfferCotation",
      "outputs": [],
      "stateMutability": "nonpayable",
      "type": "function"
    },
    {
      "inputs": [],
      "name": "changeBuyAvailability",
      "outputs": [],
      "stateMutability": "nonpayable",
      "type": "function"
    },
    {
      "inputs": [
        {
          "internalType": "uint256",
          "name": "_amount",
          "type": "uint256"
        }
      ],
      "name": "buyFromContract",
      "outputs": [],
      "stateMutability": "payable",
      "type": "function"
    },
    {
      "inputs": [
        {
          "internalType": "string",
          "name": "_username",
          "type": "string"
        }
      ],
      "name": "userSignedUp",
      "outputs": [],
      "stateMutability": "nonpayable",
      "type": "function"
    },
    {
      "inputs": [
        {
          "internalType": "uint256",
          "name": "_taskId",
          "type": "uint256"
        },
        {
          "internalType": "uint256",
          "name": "_taskOwnerAddress",
          "type": "uint256"
        }
      ],
      "name": "addTaskOwner",
      "outputs": [],
      "stateMutability": "nonpayable",
      "type": "function"
    },
    {
      "inputs": [
        {
          "internalType": "uint256",
          "name": "_taskId",
          "type": "uint256"
        }
      ],
      "name": "addTaskToStaking",
      "outputs": [
        {
          "internalType": "uint256",
          "name": "gasprice",
          "type": "uint256"
        }
      ],
      "stateMutability": "nonpayable",
      "type": "function"
    },
    {
      "inputs": [
        {
          "internalType": "uint256",
          "name": "_taskId",
          "type": "uint256"
        }
      ],
      "name": "finishTask",
      "outputs": [
        {
          "internalType": "uint256",
          "name": "gasprice",
          "type": "uint256"
        }
      ],
      "stateMutability": "nonpayable",
      "type": "function"
    },
    {
      "inputs": [
        {
          "internalType": "uint256",
          "name": "_taskId",
          "type": "uint256"
        }
      ],
      "name": "taskIsInStaking",
      "outputs": [
        {
          "internalType": "bool",
          "name": "payout",
          "type": "bool"
        }
      ],
      "stateMutability": "view",
      "type": "function"
    }
  ],
  "bytecode": "0x60806040526305f5e1006002556001600360006101000a81548160ff0219169083151502179055506040518060400160405280600981526020017f5461736b546f6b656e0000000000000000000000000000000000000000000000815250600790805190602001906200007492919062000219565b506012600860006101000a81548160ff021916908360ff1602179055506040518060400160405280600481526020017f54534b540000000000000000000000000000000000000000000000000000000081525060099080519060200190620000de92919062000219565b50348015620000ec57600080fd5b5033600360016101000a81548173ffffffffffffffffffffffffffffffffffffffff021916908373ffffffffffffffffffffffffffffffffffffffff1602179055506301c9c3806000803373ffffffffffffffffffffffffffffffffffffffff1673ffffffffffffffffffffffffffffffffffffffff168152602001908152602001600020819055506000803373ffffffffffffffffffffffffffffffffffffffff1673ffffffffffffffffffffffffffffffffffffffff16815260200190815260200160002054600254620001c3919062000302565b6000803073ffffffffffffffffffffffffffffffffffffffff1673ffffffffffffffffffffffffffffffffffffffff1681526020019081526020016000208190555066038d7ea4c68000600481905550620003a2565b82805462000227906200036c565b90600052602060002090601f0160209004810192826200024b576000855562000297565b82601f106200026657805160ff191683800117855562000297565b8280016001018555821562000297579182015b828111156200029657825182559160200191906001019062000279565b5b509050620002a69190620002aa565b5090565b5b80821115620002c5576000816000905550600101620002ab565b5090565b6000819050919050565b7f4e487b7100000000000000000000000000000000000000000000000000000000600052601160045260246000fd5b60006200030f82620002c9565b91506200031c83620002c9565b925082821015620003325762000331620002d3565b5b828203905092915050565b7f4e487b7100000000000000000000000000000000000000000000000000000000600052602260045260246000fd5b600060028204905060018216806200038557607f821691505b602082108114156200039c576200039b6200033d565b5b50919050565b61235580620003b26000396000f3fe6080604052600436106101355760003560e01c806370a08231116100ab578063a59e1ad61161006f578063a59e1ad614610465578063a74214fe14610490578063a9059cbb146104cd578063dd62ed3e1461050a578063eab628aa14610547578063fa482ae31461057057610135565b806370a082311461036c578063737225e3146103a9578063842178b2146103d45780639183164e1461041157806395d89b411461043a57610135565b806323b872dd116100fd57806323b872dd1461023657806327e235e314610273578063313ce567146102b0578063370f267e146102db578063463a0302146102f25780635c6581651461032f57610135565b806306fdde031461013a57806308bd155914610165578063095ea7b3146101a557806318160ddd146101e257806320eb74941461020d575b600080fd5b34801561014657600080fd5b5061014f61058c565b60405161015c9190611621565b60405180910390f35b34801561017157600080fd5b5061018c6004803603810190610187919061168d565b61061a565b60405161019c9493929190611716565b60405180910390f35b3480156101b157600080fd5b506101cc60048036038101906101c79190611787565b610691565b6040516101d991906117c7565b60405180910390f35b3480156101ee57600080fd5b506101f7610783565b60405161020491906117f1565b60405180910390f35b34801561021957600080fd5b50610234600480360381019061022f919061180c565b610789565b005b34801561024257600080fd5b5061025d6004803603810190610258919061184c565b61078d565b60405161026a91906117c7565b60405180910390f35b34801561027f57600080fd5b5061029a6004803603810190610295919061189f565b610a73565b6040516102a791906117f1565b60405180910390f35b3480156102bc57600080fd5b506102c5610a8b565b6040516102d291906118e8565b60405180910390f35b3480156102e757600080fd5b506102f0610a9e565b005b3480156102fe57600080fd5b506103196004803603810190610314919061168d565b610b5a565b60405161032691906117c7565b60405180910390f35b34801561033b57600080fd5b5061035660048036038101906103519190611903565b610b87565b60405161036391906117f1565b60405180910390f35b34801561037857600080fd5b50610393600480360381019061038e919061189f565b610bac565b6040516103a091906117f1565b60405180910390f35b3480156103b557600080fd5b506103be610bf4565b6040516103cb91906117f1565b60405180910390f35b3480156103e057600080fd5b506103fb60048036038101906103f6919061168d565b610bfa565b60405161040891906117f1565b60405180910390f35b34801561041d57600080fd5b506104386004803603810190610433919061168d565b610c01565b005b34801561044657600080fd5b5061044f610c9b565b60405161045c9190611621565b60405180910390f35b34801561047157600080fd5b5061047a610d29565b60405161048791906117f1565b60405180910390f35b34801561049c57600080fd5b506104b760048036038101906104b2919061168d565b610d2f565b6040516104c491906117f1565b60405180910390f35b3480156104d957600080fd5b506104f460048036038101906104ef9190611787565b610f4e565b60405161050191906117c7565b60405180910390f35b34801561051657600080fd5b50610531600480360381019061052c9190611903565b6110ea565b60405161053e91906117f1565b60405180910390f35b34801561055357600080fd5b5061056e60048036038101906105699190611a78565b611171565b005b61058a6004803603810190610585919061168d565b6111cd565b005b6007805461059990611af0565b80601f01602080910402602001604051908101604052809291908181526020018280546105c590611af0565b80156106125780601f106105e757610100808354040283529160200191610612565b820191906000526020600020905b8154815290600101906020018083116105f557829003601f168201915b505050505081565b60066020528060005260406000206000915090508060000160009054906101000a900460ff16908060000160019054906101000a900460ff16908060000160029054906101000a900473ffffffffffffffffffffffffffffffffffffffff16908060000160169054906101000a900460ff16905084565b600081600160003373ffffffffffffffffffffffffffffffffffffffff1673ffffffffffffffffffffffffffffffffffffffff16815260200190815260200160002060008573ffffffffffffffffffffffffffffffffffffffff1673ffffffffffffffffffffffffffffffffffffffff168152602001908152602001600020819055508273ffffffffffffffffffffffffffffffffffffffff163373ffffffffffffffffffffffffffffffffffffffff167f8c5be1e5ebec7d5bd14f71427d1e84f3dd0314c0f7b2291e5b200ac8c7c3b9258460405161077191906117f1565b60405180910390a36001905092915050565b60025481565b5050565b600080600160008673ffffffffffffffffffffffffffffffffffffffff1673ffffffffffffffffffffffffffffffffffffffff16815260200190815260200160002060003373ffffffffffffffffffffffffffffffffffffffff1673ffffffffffffffffffffffffffffffffffffffff168152602001908152602001600020549050826000808773ffffffffffffffffffffffffffffffffffffffff1673ffffffffffffffffffffffffffffffffffffffff168152602001908152602001600020541015801561085d5750828110155b61089c576040517f08c379a000000000000000000000000000000000000000000000000000000000815260040161089390611b94565b60405180910390fd5b826000808673ffffffffffffffffffffffffffffffffffffffff1673ffffffffffffffffffffffffffffffffffffffff16815260200190815260200160002060008282546108ea9190611be3565b92505081905550826000808773ffffffffffffffffffffffffffffffffffffffff1673ffffffffffffffffffffffffffffffffffffffff168152602001908152602001600020600082825461093f9190611c39565b925050819055507fffffffffffffffffffffffffffffffffffffffffffffffffffffffffffffffff811015610a025782600160008773ffffffffffffffffffffffffffffffffffffffff1673ffffffffffffffffffffffffffffffffffffffff16815260200190815260200160002060003373ffffffffffffffffffffffffffffffffffffffff1673ffffffffffffffffffffffffffffffffffffffff16815260200190815260200160002060008282546109fa9190611c39565b925050819055505b8373ffffffffffffffffffffffffffffffffffffffff168573ffffffffffffffffffffffffffffffffffffffff167fddf252ad1be2c89b69c2b068fc378daa952ba7f163c4a11628f55a4df523b3ef85604051610a5f91906117f1565b60405180910390a360019150509392505050565b60006020528060005260406000206000915090505481565b600860009054906101000a900460ff1681565b600360019054906101000a900473ffffffffffffffffffffffffffffffffffffffff1673ffffffffffffffffffffffffffffffffffffffff163373ffffffffffffffffffffffffffffffffffffffff1614610b2e576040517f08c379a0000000000000000000000000000000000000000000000000000000008152600401610b2590611cdf565b60405180910390fd5b600360009054906101000a900460ff1615600360006101000a81548160ff021916908315150217905550565b60006006600083815260200190815260200160002060000160019054906101000a900460ff169050919050565b6001602052816000526040600020602052806000526040600020600091509150505481565b60008060008373ffffffffffffffffffffffffffffffffffffffff1673ffffffffffffffffffffffffffffffffffffffff168152602001908152602001600020549050919050565b60045481565b6000919050565b600360019054906101000a900473ffffffffffffffffffffffffffffffffffffffff1673ffffffffffffffffffffffffffffffffffffffff163373ffffffffffffffffffffffffffffffffffffffff1614610c91576040517f08c379a0000000000000000000000000000000000000000000000000000000008152600401610c8890611cdf565b60405180910390fd5b8060048190555050565b60098054610ca890611af0565b80601f0160208091040260200160405190810160405280929190818152602001828054610cd490611af0565b8015610d215780601f10610cf657610100808354040283529160200191610d21565b820191906000526020600020905b815481529060010190602001808311610d0457829003601f168201915b505050505081565b60055481565b60003373ffffffffffffffffffffffffffffffffffffffff166006600084815260200190815260200160002060000160029054906101000a900473ffffffffffffffffffffffffffffffffffffffff1673ffffffffffffffffffffffffffffffffffffffff1614610dd5576040517f08c379a0000000000000000000000000000000000000000000000000000000008152600401610dcc90611d4b565b60405180910390fd5b60016000803373ffffffffffffffffffffffffffffffffffffffff1673ffffffffffffffffffffffffffffffffffffffff168152602001908152602001600020541015610e57576040517f08c379a0000000000000000000000000000000000000000000000000000000008152600401610e4e90611ddd565b60405180910390fd5b600015156006600084815260200190815260200160002060000160019054906101000a900460ff16151514610ec1576040517f08c379a0000000000000000000000000000000000000000000000000000000008152600401610eb890611e49565b60405180910390fd5b60016000803373ffffffffffffffffffffffffffffffffffffffff1673ffffffffffffffffffffffffffffffffffffffff1681526020019081526020016000206000828254610f109190611c39565b9250508190555060016006600084815260200190815260200160002060000160016101000a81548160ff0219169083151502179055503a9050919050565b6000816000803373ffffffffffffffffffffffffffffffffffffffff1673ffffffffffffffffffffffffffffffffffffffff168152602001908152602001600020541015610fd1576040517f08c379a0000000000000000000000000000000000000000000000000000000008152600401610fc890611edb565b60405180910390fd5b816000803373ffffffffffffffffffffffffffffffffffffffff1673ffffffffffffffffffffffffffffffffffffffff168152602001908152602001600020600082825461101f9190611c39565b92505081905550816000808573ffffffffffffffffffffffffffffffffffffffff1673ffffffffffffffffffffffffffffffffffffffff16815260200190815260200160002060008282546110749190611be3565b925050819055508273ffffffffffffffffffffffffffffffffffffffff163373ffffffffffffffffffffffffffffffffffffffff167fddf252ad1be2c89b69c2b068fc378daa952ba7f163c4a11628f55a4df523b3ef846040516110d891906117f1565b60405180910390a36001905092915050565b6000600160008473ffffffffffffffffffffffffffffffffffffffff1673ffffffffffffffffffffffffffffffffffffffff16815260200190815260200160002060008373ffffffffffffffffffffffffffffffffffffffff1673ffffffffffffffffffffffffffffffffffffffff16815260200190815260200160002054905092915050565b8060405161117f9190611f37565b60405180910390203373ffffffffffffffffffffffffffffffffffffffff167fb134d8821525a9719b2028b015b62518a54c47b7feed806892b8318b76fd78e860405160405180910390a350565b60011515600360009054906101000a900460ff16151514611223576040517f08c379a000000000000000000000000000000000000000000000000000000000815260040161121a90611fc0565b60405180910390fd5b600454816112319190611fe0565b34101561123f6004546113ff565b60405160200161124f91906120f8565b6040516020818303038152906040529061129f576040517f08c379a00000000000000000000000000000000000000000000000000000000081526004016112969190611621565b60405180910390fd5b5060008060003073ffffffffffffffffffffffffffffffffffffffff1673ffffffffffffffffffffffffffffffffffffffff168152602001908152602001600020549050818110156112f0826113ff565b60405160200161130091906121e3565b60405160208183030381529060405290611350576040517f08c379a00000000000000000000000000000000000000000000000000000000081526004016113479190611621565b60405180910390fd5b50816000803373ffffffffffffffffffffffffffffffffffffffff1673ffffffffffffffffffffffffffffffffffffffff168152602001908152602001600020600082825461139f9190611be3565b92505081905550816000803073ffffffffffffffffffffffffffffffffffffffff1673ffffffffffffffffffffffffffffffffffffffff16815260200190815260200160002060008282546113f49190611c39565b925050819055505050565b60606000821415611447576040518060400160405280600181526020017f30000000000000000000000000000000000000000000000000000000000000008152509050611583565b600082905060005b6000821461147957808061146290612210565b915050600a826114729190612288565b915061144f565b60008167ffffffffffffffff8111156114955761149461194d565b5b6040519080825280601f01601f1916602001820160405280156114c75781602001600182028036833780820191505090505b50905060008290505b6000861461157b576001816114e59190611c39565b90506000600a80886114f79190612288565b6115019190611fe0565b8761150c9190611c39565b603061151891906122b9565b905060008160f81b905080848481518110611536576115356122f0565b5b60200101907effffffffffffffffffffffffffffffffffffffffffffffffffffffffffffff1916908160001a905350600a886115729190612288565b975050506114d0565b819450505050505b919050565b600081519050919050565b600082825260208201905092915050565b60005b838110156115c25780820151818401526020810190506115a7565b838111156115d1576000848401525b50505050565b6000601f19601f8301169050919050565b60006115f382611588565b6115fd8185611593565b935061160d8185602086016115a4565b611616816115d7565b840191505092915050565b6000602082019050818103600083015261163b81846115e8565b905092915050565b6000604051905090565b600080fd5b600080fd5b6000819050919050565b61166a81611657565b811461167557600080fd5b50565b60008135905061168781611661565b92915050565b6000602082840312156116a3576116a261164d565b5b60006116b184828501611678565b91505092915050565b60008115159050919050565b6116cf816116ba565b82525050565b600073ffffffffffffffffffffffffffffffffffffffff82169050919050565b6000611700826116d5565b9050919050565b611710816116f5565b82525050565b600060808201905061172b60008301876116c6565b61173860208301866116c6565b6117456040830185611707565b61175260608301846116c6565b95945050505050565b611764816116f5565b811461176f57600080fd5b50565b6000813590506117818161175b565b92915050565b6000806040838503121561179e5761179d61164d565b5b60006117ac85828601611772565b92505060206117bd85828601611678565b9150509250929050565b60006020820190506117dc60008301846116c6565b92915050565b6117eb81611657565b82525050565b600060208201905061180660008301846117e2565b92915050565b600080604083850312156118235761182261164d565b5b600061183185828601611678565b925050602061184285828601611678565b9150509250929050565b6000806000606084860312156118655761186461164d565b5b600061187386828701611772565b935050602061188486828701611772565b925050604061189586828701611678565b9150509250925092565b6000602082840312156118b5576118b461164d565b5b60006118c384828501611772565b91505092915050565b600060ff82169050919050565b6118e2816118cc565b82525050565b60006020820190506118fd60008301846118d9565b92915050565b6000806040838503121561191a5761191961164d565b5b600061192885828601611772565b925050602061193985828601611772565b9150509250929050565b600080fd5b600080fd5b7f4e487b7100000000000000000000000000000000000000000000000000000000600052604160045260246000fd5b611985826115d7565b810181811067ffffffffffffffff821117156119a4576119a361194d565b5b80604052505050565b60006119b7611643565b90506119c3828261197c565b919050565b600067ffffffffffffffff8211156119e3576119e261194d565b5b6119ec826115d7565b9050602081019050919050565b82818337600083830152505050565b6000611a1b611a16846119c8565b6119ad565b905082815260208101848484011115611a3757611a36611948565b5b611a428482856119f9565b509392505050565b600082601f830112611a5f57611a5e611943565b5b8135611a6f848260208601611a08565b91505092915050565b600060208284031215611a8e57611a8d61164d565b5b600082013567ffffffffffffffff811115611aac57611aab611652565b5b611ab884828501611a4a565b91505092915050565b7f4e487b7100000000000000000000000000000000000000000000000000000000600052602260045260246000fd5b60006002820490506001821680611b0857607f821691505b60208210811415611b1c57611b1b611ac1565b5b50919050565b7f746f6b656e2062616c616e6365206f7220616c6c6f77616e6365206973206c6f60008201527f776572207468616e20616d6f756e742072657175657374656400000000000000602082015250565b6000611b7e603983611593565b9150611b8982611b22565b604082019050919050565b60006020820190508181036000830152611bad81611b71565b9050919050565b7f4e487b7100000000000000000000000000000000000000000000000000000000600052601160045260246000fd5b6000611bee82611657565b9150611bf983611657565b9250827fffffffffffffffffffffffffffffffffffffffffffffffffffffffffffffffff03821115611c2e57611c2d611bb4565b5b828201905092915050565b6000611c4482611657565b9150611c4f83611657565b925082821015611c6257611c61611bb4565b5b828203905092915050565b7f4f6e6c792074686520636f6e7472616374206f776e65722063616e2063616c6c60008201527f2069740000000000000000000000000000000000000000000000000000000000602082015250565b6000611cc9602383611593565b9150611cd482611c6d565b604082019050919050565b60006020820190508181036000830152611cf881611cbc565b9050919050565b7f54686973207461736b20646f65736e27742062656c6f6e6720796f7500000000600082015250565b6000611d35601c83611593565b9150611d4082611cff565b602082019050919050565b60006020820190508181036000830152611d6481611d28565b9050919050565b7f596f7520646f6e27742068617665205461736b546f6b656e7320656e6f75676860008201527f20746f20646f2074686973206f7065726174696f6e0000000000000000000000602082015250565b6000611dc7603583611593565b9150611dd282611d6b565b604082019050919050565b60006020820190508181036000830152611df681611dba565b9050919050565b7f54686973207461736b20697320616c726561647920696e207374616b696e6700600082015250565b6000611e33601f83611593565b9150611e3e82611dfd565b602082019050919050565b60006020820190508181036000830152611e6281611e26565b9050919050565b7f746f6b656e2062616c616e6365206973206c6f776572207468616e207468652060008201527f76616c7565207265717565737465640000000000000000000000000000000000602082015250565b6000611ec5602f83611593565b9150611ed082611e69565b604082019050919050565b60006020820190508181036000830152611ef481611eb8565b9050919050565b600081905092915050565b6000611f1182611588565b611f1b8185611efb565b9350611f2b8185602086016115a4565b80840191505092915050565b6000611f438284611f06565b915081905092915050565b7f596f752063616e27742062757920746f6b656e732066726f6d2074686520636f60008201527f6e747261637420666f72206e6f77000000000000000000000000000000000000602082015250565b6000611faa602e83611593565b9150611fb582611f4e565b604082019050919050565b60006020820190508181036000830152611fd981611f9d565b9050919050565b6000611feb82611657565b9150611ff683611657565b9250817fffffffffffffffffffffffffffffffffffffffffffffffffffffffffffffffff048311821515161561202f5761202e611bb4565b5b828202905092915050565b7f4574686572207175616e7469747920696e73756666696369656e742e2045616360008201527f68205461736b546f6b656e2076616c7565733a20000000000000000000000000602082015250565b6000612096603483611efb565b91506120a18261203a565b603482019050919050565b7f2057656973202831305e2d313820455448290000000000000000000000000000600082015250565b60006120e2601283611efb565b91506120ed826120ac565b601282019050919050565b600061210382612089565b915061210f8284611f06565b915061211a826120d5565b915081905092915050565b7f546f6b656e7320616d6f756e7420756e617661696c61626c6520746f2062757960008201527f2e205468657265206973206f6e6c792000000000000000000000000000000000602082015250565b6000612181603083611efb565b915061218c82612125565b603082019050919050565b7f20746f6b656e7300000000000000000000000000000000000000000000000000600082015250565b60006121cd600783611efb565b91506121d882612197565b600782019050919050565b60006121ee82612174565b91506121fa8284611f06565b9150612205826121c0565b915081905092915050565b600061221b82611657565b91507fffffffffffffffffffffffffffffffffffffffffffffffffffffffffffffffff82141561224e5761224d611bb4565b5b600182019050919050565b7f4e487b7100000000000000000000000000000000000000000000000000000000600052601260045260246000fd5b600061229382611657565b915061229e83611657565b9250826122ae576122ad612259565b5b828204905092915050565b60006122c4826118cc565b91506122cf836118cc565b92508260ff038211156122e5576122e4611bb4565b5b828201905092915050565b7f4e487b7100000000000000000000000000000000000000000000000000000000600052603260045260246000fdfea264697066735822122057ac22e69dc2fd878f3858896469e0440d1503340c1edd2b3960acbd3d7450e764736f6c634300080a0033",
  "immutableReferences": {},
  "source": "// https://eips.ethereum.org/EIPS/eip-20\r\n// SPDX-License-Identifier: MIT\r\npragma solidity >=0.5.0 <0.9.0;\r\n\r\nimport \"./ITaskToken.sol\";\r\n\r\ncontract TaskToken is IERC20 {\r\n    uint256 constant private MAX_UINT256 = 2**256 - 1;\r\n    mapping (address => uint256) public balances;\r\n    mapping (address => mapping (address => uint256)) public allowed;\r\n    uint256 public totalSupply = 100000000; //100.000.000\r\n    bool private offerAvailable = true;\r\n    address private owner;\r\n    uint256 public tokenOfferCotation;\r\n    uint256 public tokenTradeCotation;\r\n\r\n    mapping (uint256 => taskData) public taskOwner; //taskId => struct\r\n    struct taskData {\r\n        bool status;\r\n        bool onStaking;\r\n        address owner;\r\n        bool deleted;\r\n    }\r\n\r\n    /*\r\n    NOTE:\r\n    The following variables are OPTIONAL vanities. One does not have to include them.\r\n    They allow one to customise the token contract & in no way influences the core functionality.\r\n    Some wallets/interfaces might not even bother to look at this information.\r\n    */\r\n    string public name = \"TaskToken\";          \r\n    uint8 public decimals = 18;             \r\n    string public symbol = \"TSKT\";                \r\n\r\n    constructor() {\r\n        owner = msg.sender;\r\n        balances[msg.sender] = 30000000;               // Give the creator 30% of all tokens\r\n        balances[address(this)] = totalSupply - balances[msg.sender];\r\n        tokenOfferCotation = 10**15 wei;\r\n    }\r\n\r\n\r\n    //======= TOKEN P2P TRASFERS =======// \r\n    function transfer(address _to, uint256 _value) public override returns (bool success) {\r\n        require(balances[msg.sender] >= _value, \"token balance is lower than the value requested\");\r\n        balances[msg.sender] -= _value;\r\n        balances[_to] += _value;\r\n        emit Transfer(msg.sender, _to, _value); //solhint-disable-line indent, no-unused-vars\r\n        return true;\r\n    }\r\n    function transferFrom(address _from, address _to, uint256 _value) public override returns (bool success) {\r\n        uint256 allowanceAmount = allowed[_from][msg.sender];\r\n        require(balances[_from] >= _value && allowanceAmount >= _value, \"token balance or allowance is lower than amount requested\");\r\n        balances[_to] += _value;\r\n        balances[_from] -= _value;\r\n        if (allowanceAmount < MAX_UINT256) {\r\n            allowed[_from][msg.sender] -= _value;\r\n        }\r\n        emit Transfer(_from, _to, _value); //solhint-disable-line indent, no-unused-vars\r\n        return true;\r\n    }\r\n\r\n    //======= ACCOUNT & TRADE OPERATIONS =======// \r\n    function approve(address _spender, uint256 _value) public override returns (bool success) {\r\n        allowed[msg.sender][_spender] = _value;\r\n        emit Approval(msg.sender, _spender, _value); //solhint-disable-line indent, no-unused-vars\r\n        return true;\r\n    }\r\n    function allowance(address _owner, address _spender) public override view returns (uint256 remaining) {\r\n        return allowed[_owner][_spender];\r\n    }\r\n\r\n    //========= ACCOUNT CHECK ========//\r\n    function balanceOf(address _owner) public override view returns (uint256 balance) {\r\n        return balances[_owner];\r\n    }\r\n\r\n    //======= CONTRACT CRYPTO OFFER TOOLS =======// \r\n    function changeTokenOfferCotation(uint256 _newCotation) public{\r\n        require(msg.sender == owner, \"Only the contract owner can call it\");\r\n        tokenOfferCotation = _newCotation;\r\n    }\r\n    function changeBuyAvailability() public{\r\n        require(msg.sender == owner, \"Only the contract owner can call it\");\r\n        offerAvailable = !offerAvailable;\r\n    }\r\n\r\n    //======= CONTRACT ORDERS =======// \r\n    function buyFromContract(uint256 _amount) public payable{\r\n        require(offerAvailable == true, \"You can't buy tokens from the contract for now\");\r\n        require(msg.value >= _amount*tokenOfferCotation, string(abi.encodePacked(\"Ether quantity insufficient. Each TaskToken values: \",  uint2str(tokenOfferCotation), \" Weis (10^-18 ETH)\")));\r\n        uint256 restInContract = balances[address(this)];\r\n        require(restInContract >= _amount, string(abi.encodePacked(\"Tokens amount unavailable to buy. There is only \", uint2str(restInContract), \" tokens\")));\r\n        balances[msg.sender] += _amount;\r\n        balances[address(this)] -= _amount;\r\n    }\r\n\r\n\r\n    function userSignedUp(string memory _username) public{\r\n        emit SignedUpUser(msg.sender, _username);\r\n    }\r\n    \r\n    function addTaskOwner(uint256 _taskId, uint256 _taskOwnerAddress) public{\r\n        \r\n    }\r\n\r\n    function addTaskToStaking(uint256 _taskId) public returns(uint256 gasprice){\r\n        require(taskOwner[_taskId].owner == msg.sender, \"This task doesn't belong you\");\r\n        require(balances[msg.sender] >= 1, \"You don't have TaskTokens enough to do this operation\");\r\n        require(taskOwner[_taskId].onStaking == false, \"This task is already in staking\");\r\n        balances[msg.sender] -= 1;\r\n        taskOwner[_taskId].onStaking = true;\r\n        return tx.gasprice;\r\n    }\r\n\r\n    function finishTask(uint256 _taskId) public returns(uint256 gasprice){\r\n        // Verificar se quem est enviando a transao est na lista de colaborao para a tarefa (na API)\r\n        // Provavelmente precisarei usar a ChainLink\r\n        // Aproveitar a situao para usar o Polygon\r\n    }\r\n\r\n    function taskIsInStaking(uint256 _taskId) public view returns(bool payout){\r\n        return taskOwner[_taskId].onStaking;\r\n    }\r\n\r\n    /*\r\n        Criar um mapping que guarda o id de uma tarefa e a quantidade de token em stake;\r\n            - Quando o usurio clicar em \"tornar colaborativa\" em uma tarefa, ele enviar como parametro\r\n            o id da tarefa para uma determinada funo. Nessa funo, o msg.sender ser acessado e \r\n            verificar-se- se o mesmo possui a quantidade X de TaskTokens. \r\n                    - Caso no, ser retornado um erro e sugir-se- que o usurio compre tasktokens ou \r\n                mude de conta na sua wallet;\r\n                    - Caso sim, essa quantidade X ser removida da sua conta e ser colocada em staking \r\n                para a tarefa de id enviado posteriormente;\r\n\r\n        Criar o mtodo de receber a recompensa quando a tarefa  finalizada com sucesso por algum usurio\r\n    */\r\n\r\n\r\n    //------------- HELPERS -------------//\r\n    function uint2str(uint _i) internal pure returns (string memory _uintAsString) {\r\n        if (_i == 0) {\r\n            return \"0\";\r\n        }\r\n        uint j = _i;\r\n        uint len;\r\n        while (j != 0) {\r\n            len++;\r\n            j /= 10;\r\n        }\r\n        bytes memory bstr = new bytes(len);\r\n        uint k = len;\r\n        while (_i != 0) {\r\n            k = k-1;\r\n            uint8 temp = (48 + uint8(_i - _i / 10 * 10));\r\n            bytes1 b1 = bytes1(temp);\r\n            bstr[k] = b1;\r\n            _i /= 10;\r\n        }\r\n        return string(bstr);\r\n    }\r\n}",
  "sourcePath": "C:\\Users\\angel\\OneDrive\\Documentos\\Projetos GitHub\\schedule-all__nuxtjs-version\\blockchain-smart_contracts\\contracts\\TaskToken.sol",
  "compiler": {
    "name": "solc",
    "version": "0.8.10+commit.fc410830.Emscripten.clang"
  },
  "schemaVersion": "3.4.3",
  "updatedAt": "2021-12-29T21:51:57.186Z",
  "devdoc": {
    "kind": "dev",
    "methods": {
      "allowance(address,address)": {
        "params": {
          "_owner": "The address of the account owning tokens",
          "_spender": "The address of the account able to transfer the tokens"
        },
        "returns": {
          "remaining": "Amount of remaining tokens allowed to spent"
        }
      },
      "approve(address,uint256)": {
        "params": {
          "_spender": "The address of the account able to transfer the tokens",
          "_value": "The amount of wei to be approved for transfer"
        },
        "returns": {
          "success": "Whether the approval was successful or not"
        }
      },
      "balanceOf(address)": {
        "params": {
          "_owner": "The address from which the balance will be retrieved"
        },
        "returns": {
          "balance": "the balance"
        }
      },
      "transfer(address,uint256)": {
        "params": {
          "_to": "The address of the recipient",
          "_value": "The amount of token to be transferred"
        },
        "returns": {
          "success": "Whether the transfer was successful or not"
        }
      },
      "transferFrom(address,address,uint256)": {
        "params": {
          "_from": "The address of the sender",
          "_to": "The address of the recipient",
          "_value": "The amount of token to be transferred"
        },
        "returns": {
          "success": "Whether the transfer was successful or not"
        }
      }
    },
    "version": 1
  },
  "userdoc": {
    "kind": "user",
    "methods": {
      "approve(address,uint256)": {
        "notice": "`msg.sender` approves `_addr` to spend `_value` tokens"
      },
      "transfer(address,uint256)": {
        "notice": "send `_value` token to `_to` from `msg.sender`"
      },
      "transferFrom(address,address,uint256)": {
        "notice": "send `_value` token to `_to` from `_from` on the condition it is approved by `_from`"
      }
    },
    "version": 1
  }
}